{
    "contractName": "ERC20Token",
    "abi": [
        {
            "inputs": [
                {
                    "internalType": "uint256",
                    "name": "_initialAmount",
                    "type": "uint256"
                },
                {
                    "internalType": "string",
                    "name": "_tokenName",
                    "type": "string"
                },
                {
                    "internalType": "uint8",
                    "name": "_decimalUnits",
                    "type": "uint8"
                },
                {
                    "internalType": "string",
                    "name": "_tokenSymbol",
                    "type": "string"
                }
            ],
            "stateMutability": "nonpayable",
            "type": "constructor"
        },
        {
            "anonymous": false,
            "inputs": [
                {
                    "indexed": true,
                    "internalType": "address",
                    "name": "tokenOwner",
                    "type": "address"
                },
                {
                    "indexed": true,
                    "internalType": "address",
                    "name": "spender",
                    "type": "address"
                },
                {
                    "indexed": false,
                    "internalType": "uint256",
                    "name": "tokens",
                    "type": "uint256"
                }
            ],
            "name": "Approval",
            "type": "event"
        },
        {
            "anonymous": false,
            "inputs": [
                {
                    "indexed": true,
                    "internalType": "address",
                    "name": "from",
                    "type": "address"
                },
                {
                    "indexed": true,
                    "internalType": "address",
                    "name": "to",
                    "type": "address"
                },
                {
                    "indexed": false,
                    "internalType": "uint256",
                    "name": "tokens",
                    "type": "uint256"
                }
            ],
            "name": "Transfer",
            "type": "event"
        },
        {
            "inputs": [
                {
                    "internalType": "address",
                    "name": "_owner",
                    "type": "address"
                },
                {
                    "internalType": "address",
                    "name": "_spender",
                    "type": "address"
                }
            ],
            "name": "allowance",
            "outputs": [
                {
                    "internalType": "uint256",
                    "name": "remaining",
                    "type": "uint256"
                }
            ],
            "stateMutability": "view",
            "type": "function"
        },
        {
            "inputs": [
                {
                    "internalType": "address",
                    "name": "",
                    "type": "address"
                },
                {
                    "internalType": "address",
                    "name": "",
                    "type": "address"
                }
            ],
            "name": "allowed",
            "outputs": [
                {
                    "internalType": "uint256",
                    "name": "",
                    "type": "uint256"
                }
            ],
            "stateMutability": "view",
            "type": "function"
        },
        {
            "inputs": [
                {
                    "internalType": "address",
                    "name": "_spender",
                    "type": "address"
                },
                {
                    "internalType": "uint256",
                    "name": "_value",
                    "type": "uint256"
                }
            ],
            "name": "approve",
            "outputs": [
                {
                    "internalType": "bool",
                    "name": "success",
                    "type": "bool"
                }
            ],
            "stateMutability": "nonpayable",
            "type": "function"
        },
        {
            "inputs": [
                {
                    "internalType": "address",
                    "name": "_owner",
                    "type": "address"
                }
            ],
            "name": "balanceOf",
            "outputs": [
                {
                    "internalType": "uint256",
                    "name": "balance",
                    "type": "uint256"
                }
            ],
            "stateMutability": "view",
            "type": "function"
        },
        {
            "inputs": [
                {
                    "internalType": "address",
                    "name": "",
                    "type": "address"
                }
            ],
            "name": "balances",
            "outputs": [
                {
                    "internalType": "uint256",
                    "name": "",
                    "type": "uint256"
                }
            ],
            "stateMutability": "view",
            "type": "function"
        },
        {
            "inputs": [],
            "name": "decimals",
            "outputs": [
                {
                    "internalType": "uint8",
                    "name": "",
                    "type": "uint8"
                }
            ],
            "stateMutability": "view",
            "type": "function"
        },
        {
            "inputs": [],
            "name": "name",
            "outputs": [
                {
                    "internalType": "string",
                    "name": "",
                    "type": "string"
                }
            ],
            "stateMutability": "view",
            "type": "function"
        },
        {
            "inputs": [],
            "name": "symbol",
            "outputs": [
                {
                    "internalType": "string",
                    "name": "",
                    "type": "string"
                }
            ],
            "stateMutability": "view",
            "type": "function"
        },
        {
            "inputs": [],
            "name": "totSupply",
            "outputs": [
                {
                    "internalType": "uint256",
                    "name": "",
                    "type": "uint256"
                }
            ],
            "stateMutability": "view",
            "type": "function"
        },
        {
            "inputs": [],
            "name": "totalSupply",
            "outputs": [
                {
                    "internalType": "uint256",
                    "name": "totSupp",
                    "type": "uint256"
                }
            ],
            "stateMutability": "view",
            "type": "function"
        },
        {
            "inputs": [
                {
                    "internalType": "address",
                    "name": "_to",
                    "type": "address"
                },
                {
                    "internalType": "uint256",
                    "name": "_value",
                    "type": "uint256"
                }
            ],
            "name": "transfer",
            "outputs": [
                {
                    "internalType": "bool",
                    "name": "success",
                    "type": "bool"
                }
            ],
            "stateMutability": "nonpayable",
            "type": "function"
        },
        {
            "inputs": [
                {
                    "internalType": "address",
                    "name": "_from",
                    "type": "address"
                },
                {
                    "internalType": "address",
                    "name": "_to",
                    "type": "address"
                },
                {
                    "internalType": "uint256",
                    "name": "_value",
                    "type": "uint256"
                }
            ],
            "name": "transferFrom",
            "outputs": [
                {
                    "internalType": "bool",
                    "name": "success",
                    "type": "bool"
                }
            ],
            "stateMutability": "nonpayable",
            "type": "function"
        }
    ],
    "bytecode": "60806040523480156200001157600080fd5b5060405162000a7338038062000a73833981016040819052620000349162000203565b336000908152600160209081526040822086905590859055835162000060916003919086019062000090565b506004805460ff191660ff841617905580516200008590600590602084019062000090565b5050505050620002cf565b8280546200009e9062000292565b90600052602060002090601f016020900481019282620000c257600085556200010d565b82601f10620000dd57805160ff19168380011785556200010d565b828001600101855582156200010d579182015b828111156200010d578251825591602001919060010190620000f0565b506200011b9291506200011f565b5090565b5b808211156200011b576000815560010162000120565b634e487b7160e01b600052604160045260246000fd5b600082601f8301126200015e57600080fd5b81516001600160401b03808211156200017b576200017b62000136565b604051601f8301601f19908116603f01168101908282118183101715620001a657620001a662000136565b81604052838152602092508683858801011115620001c357600080fd5b600091505b83821015620001e75785820183015181830184015290820190620001c8565b83821115620001f95760008385830101525b9695505050505050565b600080600080608085870312156200021a57600080fd5b845160208601519094506001600160401b03808211156200023a57600080fd5b62000248888389016200014c565b94506040870151915060ff821682146200026157600080fd5b6060870151919350808211156200027757600080fd5b5062000286878288016200014c565b91505092959194509250565b600181811c90821680620002a757607f821691505b60208210811415620002c957634e487b7160e01b600052602260045260246000fd5b50919050565b61079480620002df6000396000f3fe608060405234801561001057600080fd5b50600436106100b45760003560e01c80635c658165116100715780635c6581651461015e57806370a082311461018957806381fbf0a5146101b257806395d89b41146101bb578063a9059cbb146101c3578063dd62ed3e146101d657600080fd5b806306fdde03146100b9578063095ea7b3146100d757806318160ddd146100fa57806323b872dd1461010c57806327e235e31461011f578063313ce5671461013f575b600080fd5b6100c161020f565b6040516100ce91906105b2565b60405180910390f35b6100ea6100e5366004610623565b61029d565b60405190151581526020016100ce565b6000545b6040519081526020016100ce565b6100ea61011a36600461064d565b610309565b6100fe61012d366004610689565b60016020526000908152604090205481565b60045461014c9060ff1681565b60405160ff90911681526020016100ce565b6100fe61016c3660046106ab565b600260209081526000928352604080842090915290825290205481565b6100fe610197366004610689565b6001600160a01b031660009081526001602052604090205490565b6100fe60005481565b6100c16104a8565b6100ea6101d1366004610623565b6104b5565b6100fe6101e43660046106ab565b6001600160a01b03918216600090815260026020908152604080832093909416825291909152205490565b6003805461021c906106de565b80601f0160208091040260200160405190810160405280929190818152602001828054610248906106de565b80156102955780601f1061026a57610100808354040283529160200191610295565b820191906000526020600020905b81548152906001019060200180831161027857829003601f168201915b505050505081565b3360008181526002602090815260408083206001600160a01b038716808552925280832085905551919290917f8c5be1e5ebec7d5bd14f71427d1e84f3dd0314c0f7b2291e5b200ac8c7c3b925906102f89086815260200190565b60405180910390a350600192915050565b6001600160a01b03831660008181526002602090815260408083203384528252808320549383526001909152812054909190831180159061034a5750828110155b6103b35760405162461bcd60e51b815260206004820152602f60248201527f496e73756666696369656e7420616c6c6f7765642066756e647320666f72207460448201526e3930b739b332b91039b7bab931b29760891b60648201526084015b60405180910390fd5b6001600160a01b038416600090815260016020526040812080548592906103db90849061072f565b90915550506001600160a01b03851660009081526001602052604081208054859290610408908490610747565b9091555050600019811015610450576001600160a01b03851660009081526002602090815260408083203384529091528120805485929061044a908490610747565b90915550505b836001600160a01b0316856001600160a01b03167fddf252ad1be2c89b69c2b068fc378daa952ba7f163c4a11628f55a4df523b3ef8560405161049591815260200190565b60405180910390a3506001949350505050565b6005805461021c906106de565b336000908152600160205260408120548211156105245760405162461bcd60e51b815260206004820152602760248201527f496e73756666696369656e742066756e647320666f72207472616e736665722060448201526639b7bab931b29760c91b60648201526084016103aa565b3360009081526001602052604081208054849290610543908490610747565b90915550506001600160a01b0383166000908152600160205260408120805484929061057090849061072f565b90915550506040518281526001600160a01b0384169033907fddf252ad1be2c89b69c2b068fc378daa952ba7f163c4a11628f55a4df523b3ef906020016102f8565b600060208083528351808285015260005b818110156105df578581018301518582016040015282016105c3565b818111156105f1576000604083870101525b50601f01601f1916929092016040019392505050565b80356001600160a01b038116811461061e57600080fd5b919050565b6000806040838503121561063657600080fd5b61063f83610607565b946020939093013593505050565b60008060006060848603121561066257600080fd5b61066b84610607565b925061067960208501610607565b9150604084013590509250925092565b60006020828403121561069b57600080fd5b6106a482610607565b9392505050565b600080604083850312156106be57600080fd5b6106c783610607565b91506106d560208401610607565b90509250929050565b600181811c908216806106f257607f821691505b6020821081141561071357634e487b7160e01b600052602260045260246000fd5b50919050565b634e487b7160e01b600052601160045260246000fd5b6000821982111561074257610742610719565b500190565b60008282101561075957610759610719565b50039056fea264697066735822122041d0ed2fd074c61de1eaa9aff5672298d5eb274d648487966025c808f469a20764736f6c634300080c0033",
    "sourcePath": "/home/ik/Documents/blockchain-projects/SupplyChainApp/contracts/erc20Token.sol",
    "compiler": {
        "name": "solc",
        "version": "0.8.12+commit.f00d7308"
    },
    "functionHashes": {
        "allowance(address,address)": "dd62ed3e",
        "allowed(address,address)": "5c658165",
        "approve(address,uint256)": "095ea7b3",
        "balanceOf(address)": "70a08231",
        "balances(address)": "27e235e3",
        "decimals()": "313ce567",
        "name()": "06fdde03",
        "symbol()": "95d89b41",
        "totSupply()": "81fbf0a5",
        "totalSupply()": "18160ddd",
        "transfer(address,uint256)": "a9059cbb",
        "transferFrom(address,address,uint256)": "23b872dd"
    },
    "gasEstimates": {
        "creation": {
            "codeDepositCost": "388000",
            "executionCost": "infinite",
            "totalCost": "infinite"
        },
        "external": {
            "allowance(address,address)": "infinite",
            "allowed(address,address)": "infinite",
            "approve(address,uint256)": "24522",
            "balanceOf(address)": "2559",
            "balances(address)": "2608",
            "decimals()": "2424",
            "name()": "infinite",
            "symbol()": "infinite",
            "totSupply()": "2339",
            "totalSupply()": "2326",
            "transfer(address,uint256)": "53273",
            "transferFrom(address,address,uint256)": "infinite"
        }
    }
}